:020000040800F2
:100000000028002095030008E5030008E503000828
:10001000E5030008E5030008E50300080000000010
:10002000000000000000000000000000E5030008E0
:10003000E503000800000000E5030008E5030008F0
:10004000E5030008E5030008E5030008E5030008F0
:10005000E5030008E5030008E5030008E5030008E0
:10006000E5030008E5030008E5030008E5030008D0
:10007000E5030008E5030008E5030008E5030008C0
:10008000E5030008E5030008E5030008E5030008B0
:10009000E5030008E5030008E5030008E5030008A0
:1000A000E50300085D030008E5030008E503000818
:1000B000E5030008E5030008E5030008E503000880
:1000C000E5030008E5030008E5030008E503000870
:1000D000E5030008E5030008E5030008E503000860
:1000E000E5030008E503000800000000E503000840
:1000F000E5030008E5030008E5030008E503000840
:10010000E5030008E5030008E5030008E50300082F
:10011000E5030008E5030008E5030008E50300081F
:10012000E5030008E5030008E5030008E50300080F
:1001300010B5054C237833B9044B13B10448AFF321
:1001400000800123237010BD00000020000000008B
:100150003004000808B5034B1BB103490348AFF353
:10016000008008BD000000000400002030040008EA
:1001700080B483B000AF0346FB7197F90730002BC2
:100180000BDBFB7903F01F02064997F907305B0987
:10019000012000FA02F241F8232000BF0C37BD46CF
:1001A00080BC704700E100E080B483B000AF03463C
:1001B0003960FB7197F90730002B0ADB3B68DAB234
:1001C0000C4997F907301201D2B20B4483F800238F
:1001D0000AE03B68DAB20849FB7903F00F03043BFD
:1001E0001201D2B20B441A7600BF0C37BD4680BC58
:1001F000704700BF00E100E000ED00E080B500AF17
:1002000000F018F80A4BDB68094A23F40053D36066
:100210004FF47A7000F08AF8054BDB68044A43F427
:100220000053D3604FF47A7000F080F8EAE700BF23
:100230000010014080B500AF2E4B1B682D4A43F4DF
:100240008033136000BF2B4B1B6803F40033002B7B
:10025000F9D0284B5B68274A43F00103536000BF85
:10026000244B5B6803F00403002BF9D0214B214A97
:100270005B6853601F4B1F4A5B6853601D4B9B6953
:100280001C4A43F0100393611A4B9B69194A43F4CB
:1002900000639361184B5B68174A23F44003536073
:1002A000154B5B68144A43F440135360134B4FF6ED
:1002B000FE72DA62114B07229A62104BDB680F4A1A
:1002C00043F00103D3600D4B1B680C4A43F001035C
:1002D000136000BF094B1B6903F00103002BF9D029
:1002E00001211920FFF760FF1920FFF741FF00BF30
:1002F00080BD00BF0010024000100140002C0140F2
:1003000080B483B000AF0346FB80074B00225A62E3
:1003100000BF054B5A6AFB889A42FAD300BF00BF60
:100320000C37BD4680BC7047002C014080B584B0BE
:1003300000AF0346FB800023FB8106E04FF47A7098
:10034000FFF7DEFFFB890133FB81FA89FB889A42C4
:10035000F4D300BF00BF1037BD4680BD80B400AFEE
:100360000B4BDB6803F40053002B06D0084BDB6813
:10037000074A23F40053D36005E0054BDB68044AC9
:1003800043F40053D36000BFBD4680BC704700BF3C
:10039000001001400D488546AFF300800C480D4920
:1003A0000D4A002302E0D458C4500433C4188C42D0
:1003B000F9D30A4A0A4C002301E013600432A24236
:1003C000FBD300F011F8FFF719FFFEE7002800202B
:1003D0000000002000000020500400080000002061
:1003E0001C000020FEE7000070B500260C4D0D4CEF
:1003F000641BA410A64209D100F01AF800260A4D89
:100400000A4C641BA410A64205D170BD55F8043BEC
:1004100098470136EEE755F8043B98470136F2E776
:100420004804000848040008480400084C04000878
:10043000F8B500BFF8BC08BC9E467047F8B500BFD1
:08044000F8BC08BC9E467047A1
:040448005501000852
:04044C003101000872
:040000050800039557
:00000001FF
